J00000000001150000000000000000000400001725378481210202001                   
Empleado Estndar Tres                                       000043134462NQ-18                                                                                                                   13401340000000000000000empleado-est치ndar-tres@ejemplo.com                          01000040V000000003
Empleado Estndar Cuatro                                     000043134462NQ-18                                                                                                                   10501050000000000000000empleado-est치ndar-cuatro@ejemplo.com                        01000040V000000004
Empleado Estndar                                            000043134462NQ-18                                                                                                                   13401340000000000000000empleado-est치ndar@ejemplo.com                               01000040V000000001
Empleado Estndar Dos                                        000043134462NQ-18                                                                                                                   10201020000000000000000empleado-est치ndar-dos@ejemplo.com                           01000040V000000002