1BAMRVECA    000000000001545NOMIN0000000222J00000000000000200000004000001100327329542021012801050000000000000037000000000001545000000000000000000000000000000000000000000000000000000000000000000000000000000000000000000000000000000000000000000000000000000000000000000000000000000000000000000000000000000000000000000000000000000000000000000000000000000000000000000000000000000000000000000000000000000000
2V0000000000000083000000000000                              0134000000000000004800000054983169231V00000008       0000000222000Empleado Dos                                                000000000000000                                                  0000                              0                                                                               00000000000000000000000000000000000
2V0000000000000051000000000000                              0105000000000000007500000000059344492V0000005        0000000222000Empleado                                                    000000000000000empleado@gmail.com                                0000                              1                                                                               00000000000000000000000000000000000
2V0000000000000093000000000000                              0134000000000000003900000054000000000V00000009       0000000222000Estndar                                                     000000000000000                                                  0000                              2                                                                               00000000000000000000000000000000000
2V0000000000000983000000000000                              0134000000000000006700000000990219231V00000098       0000000222000Empleado Tres                                               000000000000000                                                  0000                              3                                                                               00000000000000000000000000000000000
