01020211600000607597011020190000000000000SALDO INICIAL                 000000000000000000000000000000000000000000000064144104SI0000
01020211600000607597011020190120200002217COM MANTENIMIENTO DE CUENTA   000000000000083300000000000000000000000000000064060804ND5404
01020211600000607597011020199569900002218CARGO POR IGTF                000000000000001666000000000000000000000000000064059138ND5699
01020211600000607597011020190086691363720ABO TRASP A OTRAS CTAS CLAVENE000000000000000000000000001600000000000000001664059138NC1602
01020211600000607597021020190425110201901TRANSFERENCIAS RECIBIDAS      000000000000000000000000001600000000000000003264059138NC1700
01020211600000607597021020190000004382922OTROS                         000000000000000000000000001300000000000000004564059138DP1303
01020211600000607597021020190425100000001TRANSFERENCIAS RECIBIDAS      000000000000000000000000008100000000000000012664059138NC1700
01020211600000607597021020190425121064879TRANSFERENCIAS RECIBIDAS      000000000000000000000000002300000000000000014964059138NC1700
01020211600000607597021020190590560566433ABO TRASP A OTRAS CTAS CLAVENE000000000000000000000000002000000000000000016964059138NC1602
01020211600000607597021020190596160570738TRANSF BDV CTAS PROPIAS       000000000000000000000000005900000000000000022864059138NC3995
01020211600000607597021020190274860579788PAGO IMPUESTOS INTERNET       000000019556930452000000000000000000000000003307128686ND7736
01020211600000607597031020190596160672980TRANSF BDV CTAS PROPIAS       000000000000000000000000001280000000000000004587128686NC3995
01020211600000607597031020190086850041760ABO TRASP A OTRAS CTAS CLAVENE000000000000000000000000000605000000000000005192128686NC1602
01020211600000607597041020190590560698171ABO TRASP A OTRAS CTAS CLAVENE000000000000000000000000000292500000000000005484628686NC1602
01020211600000607597041020190000003588464ESTANDAR                      000000000000000000000000002000000000000000007484628686DP1303
01020211600000607597041020190000003588465ESTANDAR                      000000000000000000000000003300000000000000010784628686DP1305
01020211600000607597041020190274860775128PAGO IMPUESTOS INTERNET       000000005804873062000000000000000000000000004979755624ND7736
01020211600000607597071020190590560835334ABO TRASP A OTRAS CTAS CLAVENE000000000000000000000000000755000000000000005734755624NC1602
01020211600000607597071020190590560835152ABO TRASP A OTRAS CTAS CLAVENE000000000000000000000000001000000000000000006734755624NC1602
01020211600000607597071020190000066327123ESTANDAR                      000000000000000000000000002000000000000000008734755624DP1303
01020211600000607597071020190087180926854ABO TRASP A OTRAS CTAS CLAVENE000000000000000000000000000000001000000000008734756624NC1602
01020211600000607597071020190087188093948ABO TRASP A OTRAS CTAS CLAVENE000000000000000000000000001000000000000000009734756624NC1602
01020211600000607597071020190329200000010PAGO A PROVEEDORES B D V      000000003119312817000000000000000000000000006615443807ND6513
01020211600000607597071020199569900000010CARGO POR IGTF                000000000062386256000000000000000000000000006553057551ND5699
01020211600000607597081020190087289062167ABO TRASP A OTRAS CTAS CLAVENE000000000000000000000000000468000000000000007021057551NC1602
01020211600000607597081020190590561003877ABO TRASP A OTRAS CTAS CLAVENE000000000000000000000000001435000000000000008456057551NC1602
01020211600000607597091020190427422444271TRANSF LIQUIDAC BRUTA TIEMPO R000000000000000000000000034000000000000000042456057551NC0682
01020211600000607597091020190425134312402TRANSFERENCIAS RECIBIDAS      000000000000000000000000002020000000000000044476057551NC1700
01020211600000607597091020190425136125421TRANSFERENCIAS RECIBIDAS      000000000000000000000000150000000000000000194476057551NC1700
01020211600000607597091020190000009564561ESTANDAR                      000000000000000000000000006200000000000000200676057551DP1303
